{
  "_format": "hh-sol-artifact-1",
  "contractName": "Token",
  "sourceName": "contracts/Token.sol",
  "abi": [
    {
      "inputs": [],
      "stateMutability": "nonpayable",
      "type": "constructor"
    },
    {
      "inputs": [
        {
          "internalType": "address",
          "name": "Of",
          "type": "address"
        }
      ],
      "name": "Balance",
      "outputs": [
        {
          "internalType": "uint256",
          "name": "",
          "type": "uint256"
        }
      ],
      "stateMutability": "view",
      "type": "function"
    },
    {
      "inputs": [
        {
          "internalType": "address",
          "name": "",
          "type": "address"
        }
      ],
      "name": "Balances",
      "outputs": [
        {
          "internalType": "uint256",
          "name": "",
          "type": "uint256"
        }
      ],
      "stateMutability": "view",
      "type": "function"
    },
    {
      "inputs": [],
      "name": "Manager",
      "outputs": [
        {
          "internalType": "address",
          "name": "",
          "type": "address"
        }
      ],
      "stateMutability": "view",
      "type": "function"
    },
    {
      "inputs": [],
      "name": "Supply",
      "outputs": [
        {
          "internalType": "uint256",
          "name": "",
          "type": "uint256"
        }
      ],
      "stateMutability": "view",
      "type": "function"
    },
    {
      "inputs": [
        {
          "internalType": "address",
          "name": "To",
          "type": "address"
        },
        {
          "internalType": "uint256",
          "name": "Amount",
          "type": "uint256"
        }
      ],
      "name": "Transfer",
      "outputs": [],
      "stateMutability": "nonpayable",
      "type": "function"
    },
    {
      "inputs": [],
      "name": "name",
      "outputs": [
        {
          "internalType": "string",
          "name": "",
          "type": "string"
        }
      ],
      "stateMutability": "view",
      "type": "function"
    },
    {
      "inputs": [],
      "name": "symbol",
      "outputs": [
        {
          "internalType": "string",
          "name": "",
          "type": "string"
        }
      ],
      "stateMutability": "view",
      "type": "function"
    }
  ],
  "bytecode": "0x60806040526040518060400160405280601081526020017f4d79204861726468617420546f6b656e00000000000000000000000000000000815250600090816200004a9190620004bb565b506040518060400160405280600381526020017f4d4854000000000000000000000000000000000000000000000000000000000081525060019081620000919190620004bb565b506103e8600255348015620000a557600080fd5b50620000ed6040518060400160405280601381526020017f3e3e204d79204164647265737320497320257300000000000000000000000000815250306200017a60201b60201c565b33600360006101000a81548173ffffffffffffffffffffffffffffffffffffffff021916908373ffffffffffffffffffffffffffffffffffffffff160217905550600254600460003373ffffffffffffffffffffffffffffffffffffffff1673ffffffffffffffffffffffffffffffffffffffff16815260200190815260200160002081905550620006aa565b6200021c82826040516024016200019392919062000676565b6040516020818303038152906040527f319af333000000000000000000000000000000000000000000000000000000007bffffffffffffffffffffffffffffffffffffffffffffffffffffffff19166020820180517bffffffffffffffffffffffffffffffffffffffffffffffffffffffff83818316178352505050506200022060201b60201c565b5050565b60006a636f6e736f6c652e6c6f679050600080835160208501845afa505050565b600081519050919050565b7f4e487b7100000000000000000000000000000000000000000000000000000000600052604160045260246000fd5b7f4e487b7100000000000000000000000000000000000000000000000000000000600052602260045260246000fd5b60006002820490506001821680620002c357607f821691505b602082108103620002d957620002d86200027b565b5b50919050565b60008190508160005260206000209050919050565b60006020601f8301049050919050565b600082821b905092915050565b600060088302620003437fffffffffffffffffffffffffffffffffffffffffffffffffffffffffffffffff8262000304565b6200034f868362000304565b95508019841693508086168417925050509392505050565b6000819050919050565b6000819050919050565b60006200039c62000396620003908462000367565b62000371565b62000367565b9050919050565b6000819050919050565b620003b8836200037b565b620003d0620003c782620003a3565b84845462000311565b825550505050565b600090565b620003e7620003d8565b620003f4818484620003ad565b505050565b5b818110156200041c5762000410600082620003dd565b600181019050620003fa565b5050565b601f8211156200046b576200043581620002df565b6200044084620002f4565b8101602085101562000450578190505b620004686200045f85620002f4565b830182620003f9565b50505b505050565b600082821c905092915050565b6000620004906000198460080262000470565b1980831691505092915050565b6000620004ab83836200047d565b9150826002028217905092915050565b620004c68262000241565b67ffffffffffffffff811115620004e257620004e16200024c565b5b620004ee8254620002aa565b620004fb82828562000420565b600060209050601f8311600181146200053357600084156200051e578287015190505b6200052a85826200049d565b8655506200059a565b601f1984166200054386620002df565b60005b828110156200056d5784890151825560018201915060208501945060208101905062000546565b868310156200058d578489015162000589601f8916826200047d565b8355505b6001600288020188555050505b505050505050565b600082825260208201905092915050565b60005b83811015620005d3578082015181840152602081019050620005b6565b60008484015250505050565b6000601f19601f8301169050919050565b6000620005fd8262000241565b620006098185620005a2565b93506200061b818560208601620005b3565b6200062681620005df565b840191505092915050565b600073ffffffffffffffffffffffffffffffffffffffff82169050919050565b60006200065e8262000631565b9050919050565b620006708162000651565b82525050565b60006040820190508181036000830152620006928185620005f0565b9050620006a3602083018462000665565b9392505050565b61093480620006ba6000396000f3fe608060405234801561001057600080fd5b506004361061007d5760003560e01c806378357e531161005b57806378357e53146100ec57806395d89b411461010a578063a8ec4c4214610128578063ee07bf22146101585761007d565b806306fdde0314610082578063239fcf0f146100a057806369ca02dd146100d0575b600080fd5b61008a610176565b60405161009791906105e1565b60405180910390f35b6100ba60048036038101906100b59190610666565b610204565b6040516100c791906106ac565b60405180910390f35b6100ea60048036038101906100e591906106f3565b61024d565b005b6100f46103bf565b6040516101019190610742565b60405180910390f35b6101126103e5565b60405161011f91906105e1565b60405180910390f35b610142600480360381019061013d9190610666565b610473565b60405161014f91906106ac565b60405180910390f35b61016061048b565b60405161016d91906106ac565b60405180910390f35b600080546101839061078c565b80601f01602080910402602001604051908101604052809291908181526020018280546101af9061078c565b80156101fc5780601f106101d1576101008083540402835291602001916101fc565b820191906000526020600020905b8154815290600101906020018083116101df57829003601f168201915b505050505081565b6000600460008373ffffffffffffffffffffffffffffffffffffffff1673ffffffffffffffffffffffffffffffffffffffff168152602001908152602001600020549050919050565b80600460003373ffffffffffffffffffffffffffffffffffffffff1673ffffffffffffffffffffffffffffffffffffffff1681526020019081526020016000205410156102cf576040517f08c379a00000000000000000000000000000000000000000000000000000000081526004016102c690610809565b60405180910390fd5b61030f6040518060400160405280601f81526020017f3e3e205472616e7366657272696e6720257320416d6f756e7420746f202573008152508284610491565b80600460003373ffffffffffffffffffffffffffffffffffffffff1673ffffffffffffffffffffffffffffffffffffffff168152602001908152602001600020600082825461035e9190610858565b9250508190555080600460008473ffffffffffffffffffffffffffffffffffffffff1673ffffffffffffffffffffffffffffffffffffffff16815260200190815260200160002060008282546103b4919061088c565b925050819055505050565b600360009054906101000a900473ffffffffffffffffffffffffffffffffffffffff1681565b600180546103f29061078c565b80601f016020809104026020016040519081016040528092919081815260200182805461041e9061078c565b801561046b5780601f106104405761010080835404028352916020019161046b565b820191906000526020600020905b81548152906001019060200180831161044e57829003601f168201915b505050505081565b60046020528060005260406000206000915090505481565b60025481565b61052b8383836040516024016104a9939291906108c0565b6040516020818303038152906040527f1c7ec448000000000000000000000000000000000000000000000000000000007bffffffffffffffffffffffffffffffffffffffffffffffffffffffff19166020820180517bffffffffffffffffffffffffffffffffffffffffffffffffffffffff8381831617835250505050610530565b505050565b60006a636f6e736f6c652e6c6f679050600080835160208501845afa505050565b600081519050919050565b600082825260208201905092915050565b60005b8381101561058b578082015181840152602081019050610570565b60008484015250505050565b6000601f19601f8301169050919050565b60006105b382610551565b6105bd818561055c565b93506105cd81856020860161056d565b6105d681610597565b840191505092915050565b600060208201905081810360008301526105fb81846105a8565b905092915050565b600080fd5b600073ffffffffffffffffffffffffffffffffffffffff82169050919050565b600061063382610608565b9050919050565b61064381610628565b811461064e57600080fd5b50565b6000813590506106608161063a565b92915050565b60006020828403121561067c5761067b610603565b5b600061068a84828501610651565b91505092915050565b6000819050919050565b6106a681610693565b82525050565b60006020820190506106c1600083018461069d565b92915050565b6106d081610693565b81146106db57600080fd5b50565b6000813590506106ed816106c7565b92915050565b6000806040838503121561070a57610709610603565b5b600061071885828601610651565b9250506020610729858286016106de565b9150509250929050565b61073c81610628565b82525050565b60006020820190506107576000830184610733565b92915050565b7f4e487b7100000000000000000000000000000000000000000000000000000000600052602260045260246000fd5b600060028204905060018216806107a457607f821691505b6020821081036107b7576107b661075d565b5b50919050565b7f4e6f7420456e6f7567682042616c616e63650000000000000000000000000000600082015250565b60006107f360128361055c565b91506107fe826107bd565b602082019050919050565b60006020820190508181036000830152610822816107e6565b9050919050565b7f4e487b7100000000000000000000000000000000000000000000000000000000600052601160045260246000fd5b600061086382610693565b915061086e83610693565b925082820390508181111561088657610885610829565b5b92915050565b600061089782610693565b91506108a283610693565b92508282019050808211156108ba576108b9610829565b5b92915050565b600060608201905081810360008301526108da81866105a8565b90506108e9602083018561069d565b6108f66040830184610733565b94935050505056fea2646970667358221220b41ea5dc25ac2ee61ff4deb6e04c49b90e40aff4a1ad22804a655e1fe6a5cc0264736f6c63430008130033",
  "linkReferences": {},
  "deployedLinkReferences": {}
}